{
    "contractName": "GreenPass",
    "abi": [
        {
            "inputs": [],
            "stateMutability": "nonpayable",
            "type": "constructor"
        },
        {
            "inputs": [
                {
                    "internalType": "string",
                    "name": "_firstName",
                    "type": "string"
                },
                {
                    "internalType": "string",
                    "name": "_lastName",
                    "type": "string"
                },
                {
                    "internalType": "uint256",
                    "name": "_id",
                    "type": "uint256"
                },
                {
                    "internalType": "uint256",
                    "name": "_expiration",
                    "type": "uint256"
                }
            ],
            "name": "addGreenPass",
            "outputs": [],
            "stateMutability": "nonpayable",
            "type": "function"
        },
        {
            "inputs": [],
            "name": "count",
            "outputs": [
                {
                    "internalType": "uint256",
                    "name": "",
                    "type": "uint256"
                }
            ],
            "stateMutability": "view",
            "type": "function"
        },
        {
            "inputs": [
                {
                    "internalType": "uint256",
                    "name": "",
                    "type": "uint256"
                }
            ],
            "name": "indexes",
            "outputs": [
                {
                    "internalType": "uint256",
                    "name": "",
                    "type": "uint256"
                }
            ],
            "stateMutability": "view",
            "type": "function"
        },
        {
            "inputs": [],
            "name": "isOwner",
            "outputs": [
                {
                    "internalType": "bool",
                    "name": "",
                    "type": "bool"
                }
            ],
            "stateMutability": "view",
            "type": "function"
        },
        {
            "inputs": [
                {
                    "internalType": "uint256",
                    "name": "",
                    "type": "uint256"
                }
            ],
            "name": "passs",
            "outputs": [
                {
                    "internalType": "string",
                    "name": "firstName",
                    "type": "string"
                },
                {
                    "internalType": "string",
                    "name": "lastName",
                    "type": "string"
                },
                {
                    "internalType": "uint256",
                    "name": "id",
                    "type": "uint256"
                },
                {
                    "internalType": "uint256",
                    "name": "expiration",
                    "type": "uint256"
                }
            ],
            "stateMutability": "view",
            "type": "function"
        },
        {
            "inputs": [],
            "name": "status",
            "outputs": [
                {
                    "internalType": "enum GreenPass.GreenPassStatus",
                    "name": "",
                    "type": "uint8"
                }
            ],
            "stateMutability": "view",
            "type": "function"
        },
        {
            "inputs": [
                {
                    "internalType": "uint256",
                    "name": "_id",
                    "type": "uint256"
                },
                {
                    "internalType": "uint256",
                    "name": "_expiration",
                    "type": "uint256"
                }
            ],
            "name": "updateExpiration",
            "outputs": [],
            "stateMutability": "nonpayable",
            "type": "function"
        }
    ],
    "bytecode": "6080604052600060035562015180600455636030f3db60065534801561002457600080fd5b50600580546001600160a01b03191633179055610713806100466000396000f3fe608060405234801561001057600080fd5b506004361061007d5760003560e01c80638f32d59b1161005b5780638f32d59b146100df57806392f8eb94146100fd578063a00a46011461011d578063d62d36411461013257600080fd5b80630619de561461008257806306661abd146100ae578063200d2ed2146100c5575b600080fd5b61009561009036600461043a565b610145565b6040516100a594939291906104a0565b60405180910390f35b6100b760035481565b6040519081526020016100a5565b6000546100d29060ff1681565b6040516100a591906104d9565b6005546001600160a01b0316331460405190151581526020016100a5565b6100b761010b36600461043a565b60026020526000908152604090205481565b61013061012b366004610501565b61027d565b005b6101306101403660046105c6565b6102c5565b6001602052600090815260409020805481906101609061063a565b80601f016020809104026020016040519081016040528092919081815260200182805461018c9061063a565b80156101d95780601f106101ae576101008083540402835291602001916101d9565b820191906000526020600020905b8154815290600101906020018083116101bc57829003601f168201915b5050505050908060010180546101ee9061063a565b80601f016020809104026020016040519081016040528092919081815260200182805461021a9061063a565b80156102675780601f1061023c57610100808354040283529160200191610267565b820191906000526020600020905b81548152906001019060200180831161024a57829003601f168201915b5050505050908060020154908060030154905084565b6005546001600160a01b0316331461029457600080fd5b806004546102a2919061068b565b6102ac90426106aa565b6000928352600160205260409092206003019190915550565b6005546001600160a01b031633146102dc57600080fd5b6000816004546102ec919061068b565b6102f690426106aa565b905061030061038a565b6003546000908152600260209081526040808320869055805160808101825288815280830188905280820187905260608101859052868452600183529220825180519192610353928492909101906103a1565b50602082810151805161036c92600185019201906103a1565b50604082015160028201556060909101516003909101555050505050565b6003805490600061039a836106c2565b9190505550565b8280546103ad9061063a565b90600052602060002090601f0160209004810192826103cf5760008555610415565b82601f106103e857805160ff1916838001178555610415565b82800160010185558215610415579182015b828111156104155782518255916020019190600101906103fa565b50610421929150610425565b5090565b5b808211156104215760008155600101610426565b60006020828403121561044c57600080fd5b5035919050565b6000815180845260005b818110156104795760208185018101518683018201520161045d565b8181111561048b576000602083870101525b50601f01601f19169290920160200192915050565b6080815260006104b36080830187610453565b82810360208401526104c58187610453565b604084019590955250506060015292915050565b60208101600283106104fb57634e487b7160e01b600052602160045260246000fd5b91905290565b6000806040838503121561051457600080fd5b50508035926020909101359150565b634e487b7160e01b600052604160045260246000fd5b600082601f83011261054a57600080fd5b813567ffffffffffffffff8082111561056557610565610523565b604051601f8301601f19908116603f0116810190828211818310171561058d5761058d610523565b816040528381528660208588010111156105a657600080fd5b836020870160208301376000602085830101528094505050505092915050565b600080600080608085870312156105dc57600080fd5b843567ffffffffffffffff808211156105f457600080fd5b61060088838901610539565b9550602087013591508082111561061657600080fd5b5061062387828801610539565b949794965050505060408301359260600135919050565b600181811c9082168061064e57607f821691505b6020821081141561066f57634e487b7160e01b600052602260045260246000fd5b50919050565b634e487b7160e01b600052601160045260246000fd5b60008160001904831182151516156106a5576106a5610675565b500290565b600082198211156106bd576106bd610675565b500190565b60006000198214156106d6576106d6610675565b506001019056fea2646970667358221220b54f8a9e5a512d49055c1a9163896929ff36825bbbef21dcdc367516c3b7caed64736f6c634300080b0033",
    "sourcePath": "c:/Projects/GreenPass/sols/GreenPass.sol",
    "compiler": {
        "name": "solc",
        "version": "0.8.11+commit.d7f03943"
    },
    "functionHashes": {
        "addGreenPass(string,string,uint256,uint256)": "d62d3641",
        "count()": "06661abd",
        "indexes(uint256)": "92f8eb94",
        "isOwner()": "8f32d59b",
        "passs(uint256)": "0619de56",
        "status()": "200d2ed2",
        "updateExpiration(uint256,uint256)": "a00a4601"
    },
    "gasEstimates": {
        "creation": {
            "codeDepositCost": "362200",
            "executionCost": "73852",
            "totalCost": "436052"
        },
        "external": {
            "addGreenPass(string,string,uint256,uint256)": "infinite",
            "count()": "2318",
            "indexes(uint256)": "2460",
            "isOwner()": "2309",
            "passs(uint256)": "infinite",
            "status()": "2396",
            "updateExpiration(uint256,uint256)": "26884"
        },
        "internal": {
            "incrementCount()": "24301"
        }
    }
}